S0100000536166655F426F782E737265630D
S11300000C9434000C9451000C9451000C94510045
S11300100C9451000C9451000C9451000C94510018
S11300200C9451000C9451000C9451000C94510008
S11300300C9451000C9451000C9451000C945100F8
S11300400C9451000C9451000C9451000C945100E8
S11300500C9451000C9451000C9451000C945100D8
S11300600C9451000C94510011241FBECFEFD8E022
S1130070DEBFCDBF12E0A0E0B1E0ECE0F7E102C0EA
S113008005900D92AE33B107D9F722E0AEE3B2E0AA
S113009001C01D92A434B207E1F70E94C0020C947F
S11300A0840B0C940000FC0140815181FB012081F0
S11300B0318171E060E02417350708F070E0872F84
S11300C0962F61E070E04217530710F060E070E093
S11300D0861B970B08950F931F93CF93DF93CDB790
S11300E0DEB7CA50D1400FB6F894DEBF0FBECDBF05
S11300F084E480937C00EEE7F0E08081806180837B
S113010087E880937A0085E091E00E946F0690E092
S113011010C0EAE7F0E080818064808380917A00F7
S113012086FDFCCFE3ECF9E03197F1F700C0000065
S11301309F5F983070F320E030E020C0EAE7F0E001
S113014080818064808380917A0086FDFCCF8091D9
S1130150780090917900F901EE0FFF1F41E050E023
S11301604C0F5D1FE40FF51F9183808383EC99E0AE
S11301700197F1F700C000002F5F3F4F253631058E
S1130180E8F223E530E042E050E065E670E0CE01BD
S113019001960E94CC06A6968FADA697A7969FAD12
S11301A0A79780933E0290933F029F938F938DE194
S11301B091E09F938F938E0105531F4F1F930F93CD
S11301C00E948608C8010E946F060F900F900F903E
S11301D00F900F900F90C65FDE4F0FB6F894DEBFFE
S11301E00FBECDBFDF91CF911F910F910895EAE724
S11301F0F0E080818064808380917A0086FDFCCF6A
S113020080917800909179000895EF92FF920F9376
S11302101F93CF93DF93CDB7DEB7A0970FB6F894B3
S1130220DEBF0FBECDBF0E94F7008C011F938F93DA
S11302308BE291E09F938F93CE0101967C019F9373
S11302408F930E948608C7010E946F0640913E0268
S113025050913F029A01220F331FCA01880F991F40
S1130260880F991F880F991F280F391F36952795D6
S113027036952795ABE7B4E10E947C069695879561
S1130280481B590B0F900F900F900F900F900F90E9
S11302900417150710F481E001C080E0A0960FB6A2
S11302A0F894DEBF0FBECDBFDF91CF911F910F91A8
S11302B0FF90EF9008951092800082E08093810077
S11302C0109285001092840008958AB1877F8AB9BC
S11302D08BB188608BB90E945B0188E391E00E9436
S11302E06F0608954B99FECF1092850010928400FA
S11302F04B9BFECFE4E8F0E0808191811182108273
S11303004B99FECF809184009091850096958795B6
S1130310815D9740873E9340F8F4309140022091EC
S11303204102809142029091430228C04B9BFECF30
S113033010928500109284004B99FECF2091840086
S113034030918500440F551F661F771F223D3740AB
S113035008F041608F5F04C080E040E050E0BA01E3
S1130360803220F340934002509341026093420252
S113037070934302342F252F862F972F632F722FCC
S11303800895882324F49BB190689BB903C09BB162
S11303909F779BB986FF04C09BB190649BB903C04F
S11303A09BB19F7B9BB985FF04C09BB190629BB9B5
S11303B003C09BB19F7D9BB984FF04C08BB1806156
S11303C08BB903C08BB18F7E8BB988B1826088B939
S11303D085E08A95F1F7000088B18D7F88B98FE3B5
S11303E091E00197F1F700C0000008958AB1806898
S11303F08AB98AB180648AB98AB180628AB98AB1B9
S113040080618AB987B1816087B987B1826087B911
S11304100895CF93C82F88B18E7F88B98C2F807FA1
S11304200E94C1018C2F8295807F0E94C101C1501E
S1130430C23038F48FE39FE10197F1F700C0000068
S113044006C08FE391E00197F1F700C00000CF915F
S113045008950E94F6012FEF81EE94E02150804030
S11304609040E1F700C0000088B18E7F88B988B160
S11304708D7F88B980E30E94C1018FE39CE90197D5
S1130480F1F700C0000080E30E94C1018FE193E016
S11304900197F1F700C0000080E30E94C1018FE1E1
S11304A093E00197F1F700C0000088E20E94C101C7
S11304B08FE391E00197F1F700C0000088E20E9409
S11304C0090288E00E94090281E00E94090286E094
S11304D00E9409028CE00E9409020895CF93C82F5C
S11304E088B1816088B98C2F807F0E94C1018C2FD4
S11304F08295807F0E94C1018FE391E00197F1F71B
S113050000C00000CF910895CF93DF93EC0103C0A6
S113051021960E946E0288818111FACFDF91CF91DA
S1130520089585B18E7F85B988B1877F88B908958C
S11305300F931F93CF93DF938C01EB0181E00E9413
S1130540090281EE94E00197F1F700C0000080E811
S11305500E9409029AE19A95F1F700C0C8010E942D
S1130560840280EC0E9409028AE18A95F1F700C0B6
S1130570CE010E948402DF91CF911F910F910895C3
S1130580CF93DF93CDB7DEB72F970FB6F894DEBFC6
S11305900FBECDBF8AB18B7F8AB98BB184608BB912
S11305A087B18B7D87B988B1846288B984B1816051
S11305B084B987B1886087B90E9491020E94290298
S11305C067E272E08CE491E00E9498022FE73AE13E
S11305D086E0215030408040E1F700C000000E94D6
S11305E072050E9465010E946B0085E0E0E0F1E085
S11305F0DE01169601900D928A95E1F7CC24C394FE
S11306009924939431E089B191E0282F247082FDDC
S113061090E0B92E86B18072E82EF12C81E0E114CD
S1130620F10409F080E0A82E06B1047010E081E026
S11306300115110509F080E0D82E211130C03111C7
S11306402EC00E94910267E571E083E691E00E946A
S11306509802CE0101960E9400068823D1F30E94DD
S1130660910245E050E0BE016A5F7F4FCE010196E2
S11306700E947008892B51F46DE671E083E691E0E5
S11306800E94980285B1816085B909C06DE771E067
S113069083E691E00E94980288B1886088B9EF28C7
S11306A009F0AFC09110ADC00E9491026CE871E0F6
S11306B087E991E00E949802AFE4B3EC1197F1F757
S11306C000C00000FE013B9685E0DF011D928A9583
S11306D0E9F7F12C74C00E947201653BBAE47B0710
S11306E0BFEF8B07910509F44EC0D8F4673E38E19B
S11306F073073FEF83079105E1F130F46F3E7041DA
S11307008F4F9105D1F141C06F3C20E372072FEF69
S11307108207910561F1673C78438F4F910579F128
S113072034C06538AAE77A07AFEF8A07910519F153
S113073068F4653A2AE572072FEF8207910509F1FB
S1130740673978468F4F910571F01FC06736A8E965
S11307507A07AFEF8A079105D1F06F34704B8F4F52
S1130760910519F012C091E313C093E311C094E30F
S11307700FC095E30DC096E30BC097E309C098E35F
S113078007C099E305C090E303C09FE301C092E36F
S113079080ED890F8A3098F481E08F0DEBE0F0E072
S11307A0EC0FFD1FEF0DF11D90832FE53AEE90E065
S11307B0215030409040E1F700C00000F82EA3E043
S11307C0AF1508F088CF1F860E9491026FE971E08F
S11307D0CE010B960E947D08892B51F46DE671E0E1
S11307E087E991E00E94980285B1816085B909C0CA
S11307F06DE771E087E991E00E94980288B1886012
S113080088B9012BD9F4C11019C00E9491020E9429
S11308100501882351F064EA71E08AEA91E00E94BC
S1130820980288B1886088B909C068EB71E08AEAE7
S113083091E00E94980285B1816085B983ED90E3CF
S11308400197F1F700C000003B2D9A2CCD2CDBCE94
S113085084B18E6284B984B18F7E84B983E58CBD02
S113086084B1846084B908958EBD0DB407FEFDCFB4
S11308708EB5089585B18B7F85B983E08A95F1F7AC
S11308800000089583E08A95F1F7000085B1846043
S113089085B90895CF93DF93C82FD62F0E943A04C9
S11308A08C2F90E0880F991F8E770E9434048D2F2F
S11308B00E9434040E944204DF91CF910895CF93A3
S11308C0C82F0E943A048C2F90E0880F991F8068EB
S11308D00E94340480E00E943404C82F0E94420421
S11308E08C2FCF910895CF93DF93D82FC62F0E94DA
S11308F05F04682F6C2B8D2F0E944A04DF91CF91E7
S11309000895CF93DF93D82FC62F0E945F04C0951C
S11309106C2F68238D2F0E944A04DF91CF91089594
S11309208F929F92AF92BF92CF92DF92EF92FF92FB
S11309300F931F93CF93DF93CDB7DEB7C054D10984
S11309400FB6F894DEBF0FBECDBF982E5B01842E88
S1130950690167EF82E00E944A0460E884E00E9433
S1130960810460E88AE00E947304E12CF12C0AC03F
S1130970F501EE0DFF1D608189E00E944A048FEFAE
S1130980E81AF80A882D90E0E816F90688F3692D2C
S113099081E00E944A049CE0991204C060E88DE062
S11309A00E9473040F2EF0EDEF2EF7E0FF2EF02DD2
S11309B084E00E945F04E1E0EE1AF10821F080FD7A
S11309C002C08073A9F3E114F104F1F480EC91E026
S11309D00E946F0687E30E945F041F928F938EED3F
S11309E091E09F938F935E01F1E2AF0EB11CBF9231
S11309F0AF920E948608C5010E946F060F900F9067
S1130A000F900F900F900F9086E00E945F041F924A
S1130A108F9381E092E09F938F93CE0101965C01C6
S1130A209F938F930E948608C5010E946F0660E819
S1130A308DE00E9481040F900F900F900F900F9003
S1130A400F90EF28B1F186E00E945F048B7199F555
S1130A509CE0991232C08AE00E945F04B82E8CE0B8
S1130A600E945F04877069F02B2D30E0215031091A
S1130A70220F220F220F820FF801808300E010E082
S1130A8011C08B2D880F880F880FF8018083F6CF53
S1130A907601E00EF11E89E00E945F04F701808375
S1130AA00F5F1F4F8B2D90E00817190788F381E023
S1130AB005C080E003C080E001C081E0C05CDF4F7E
S1130AC00FB6F894DEBF0FBECDBFDF91CF911F915B
S1130AD00F91FF90EF90DF90CF90BF90AF909F90D9
S1130AE08F900895DF92EF92FF920F931F93CF930D
S1130AF0DF93CDB7DEB72A970FB6F894DEBF0FBEEB
S1130B00CDBF0E94280485B1826085B983ED90E34E
S1130B100197F1F700C0000085B18D7F85B983EDA1
S1130B2090E30197F1F700C0000085B1826085B9B8
S1130B306FE081E00E944A0483ED90E30197F1F7AE
S1130B4000C000006DE88AE20E944A046EE38BE272
S1130B500E944A046EE18DE20E944A0460E08CE245
S1130B600E944A0460E485E10E944A046DE381E145
S1130B700E944A0484E10E945F04182F83E192E0FA
S1130B800E946F061F921F930F2EFBE0EF2EF2E0E0
S1130B90FF2EF02DFF92EF928E010F5F1F4F1F93D8
S1130BA00F930E948608C8010E946F0663E084E1E7
S1130BB00E94730484E10E945F04D82E89E292E0CB
S1130BC00E946F061F92DF92FF92EF921F930F9382
S1130BD00E948608C8010E946F060FB6F894DEBF13
S1130BE00FBECDBF2A960FB6F894DEBF0FBECDBFA1
S1130BF0DF91CF911F910F91FF90EF90DF900895B7
S1130C00EF92FF920F931F93CF93DF9300D000D006
S1130C1000D0CDB7DEB77C0180E005C0F701E80F56
S1130C20F11D10828F5F8530C8F367E08DE00E946C
S1130C304A0486E28C838E010D5F1F4F9E012F5F55
S1130C403F4F41E0BE016C5F7F4F8CE00E949004F7
S1130C50813041F58B81803139F560E08DE00E946F
S1130C604A0483E98D8380E28E83970142E0BE01CA
S1130C706B5F7F4F8CE00E9490048130B9F49B81BC
S1130C809832B1F490E020E006C0F701E90FF11DBD
S1130C90308123279F5F9430C0F3F7019481291397
S1130CA009C009C080E007C080E005C080E003C03F
S1130CB080E001C080E026960FB6F894DEBF0FBE38
S1130CC0CDBFDF91CF911F910F91FF90EF900895C9
S1130CD09091C00095FFFCCF8093C6000895CF93F8
S1130CE0DF93EC0103C021960E946806888181117C
S1130CF0FACFDF91CF910895A29FB001B39FC001B5
S1130D00A39F700D811D1124911DB29F700D811D33
S1130D101124911D0895DC01FB018C9190819D9318
S1130D2081934150510914161506BCF30895A0E0AF
S1130D30B0E0EDE9F6E00C94570B7C016B01D42F85
S1130D40C52F8901F90109956D2F7C2F97FF10C0DC
S1130D50C601F801099597FF02C0C60118C06D2F9E
S1130D607C2FC701F801099597FD0FC0C7010FC07B
S1130D70C601F8010995181619067CF36D2F7C2F0E
S1130D80C701F801099597FDF1CF8D2F9C2FCDB7A1
S1130D90DEB7E8E00C94730BAAE0B0E0E2EDF6E015
S1130DA00C944D0B8C017B015A8749876901298575
S1130DB03A85200F311F3A83298337E0E316F10483
S1130DC070F569807A8049855A85E49E5001E59ED4
S1130DD0B00CF49EB00C1124A00EB11E6A147B0456
S1130DE008F07AC173010E151F0528F089859A85CC
S1130DF0680E791EF3CF4701E985FA858E1A9F0A9A
S1130E00B701C401F6010995181619067CF749853E
S1130E105A85B401C7010E948B067401E4CFC7014F
S1130E209695879529853A85829F5001839FB00CBA
S1130E30929FB00C1124A00EB11EA701415051097C
S1130E405C834B8357E0E516F10409F44CC08B81B5
S1130E509C81829F3001839F700C929F700C11249F
S1130E60600E711E99E2E916F104A8F1C70143E08E
S1130E70969587954A95E1F7829F4001839F900C50
S1130E80929F900C11241401220C331CA801420DD2
S1130E90531DB801680D791D9601C8010E9497067B
S1130EA02C01A501480D591D919481949108960136
S1130EB0B501C501880D991D0E9497065C01B30117
S1130EC0680D791D9601A301C301821993090E943B
S1130ED097063C0101C028019601A301B501C20196
S1130EE00E9497065C0149855A85B501C8010E9494
S1130EF08B0669807A802B813C8149855A85249FA1
S1130F00F001259FF00D349FF00D1124FE83ED8335
S1130F105F01A00EB11E460D571D5C834B83250156
S1130F2013011A8219828B809C8089859A85881A7C
S1130F30990AA814B90408F450C0B801C401F60110
S1130F40099518161906C4F1892B71F449855A8537
S1130F50B401C1010E948B0689859A85280E391E29
S1130F60E1E0F0E0FA83E9832B813C8149855A85ED
S1130F70240F351F3C832B83D6CFB801C501F6015E
S1130F800995950149855A85241B350B38872F838C
S1130F9097FD16C0892B71F449855A85B201C501A4
S1130FA00E948B0629853A85421A530A41E050E093
S1130FB05A834983AF80B884A814B904F0F60DC0ED
S1130FC049855A85B501C4010E948B06AF80B88457
S1130FD041E050E05A834983C7CF89819A81892BA4
S1130FE009F44FC06D807E8029853A85620E731E98
S1130FF0600E711E7401E218F308A101401B510B2D
S1131000E416F5060CF4A7011416150634F4B4011D
S1131010641B750BC8010E948B06A2014A195B0967
S11310205A01A3014419550989859A85481B590B0E
S1131030A416B50608F4A5011416150634F4B30174
S1131040641B750BC4010E948B06E985FA85EE15B5
S1131050FF0548F4C701BF010E94390B9601AF0197
S1131060C8010E94CC0629853A852A153B05A0F5BE
S113107083010A191B09C501B9010E94390B7B01BF
S113108096CEE985FA85EE9E5001EF9EB00CFE9E49
S1131090B00C1124A00EB11E6A147B04E8F4730191
S11310A00E151F0528F089859A85680E791EF4CFE0
S11310B04701E985FA858E1A9F0AB701C401F60132
S11310C00995181619067CF749855A85B401C70194
S11310D00E948B067401E4CF2A96E2E10C94690B1A
S11310E0FB01DC0104C08D910190801921F4415071
S11310F05040C8F7881B990B0895FB01DC018D91C2
S1131100019080190110D9F3990B0895AEE0B0E075
S1131110ECE8F8E00C945B0B0D891E8986E08C8367
S11311201A8309838FEF9FE79E838D83AE01475E09
S11311305F4F6F89788DCE0101960E94A808EF81D8
S1131140F885E00FF11F10822E96E4E00C94770BE3
S1131150ABE0B0E0EEEAF8E00C944D0B6C017B01DF
S11311608A01FC0117821682838181FFCCC1CE01E2
S113117001963C01F6019381F70193FD859193FF5C
S113118081917F01882309F4BAC1853239F493FD32
S1131190859193FF81917F01853229F4B60190E016
S11311A00E949F0AE7CF912C212C312CFFE1F315EB
S11311B0D8F08B3279F038F4803279F08332A1F4AC
S11311C0232D20611DC08D3261F0803369F4232DFD
S11311D0216016C0832D8260382EE32DE4603E2EFC
S11311E02AC0F32DF8601DC037FC2DC020ED280F58
S11311F02A3040F08E32B9F436FC81C1232D2064AC
S1131200322E19C036FE06C08AE0989E200D1124A5
S1131210922E11C0EAE02E9E200D1124222EF32DD1
S1131220F0623F2E08C08C3621F4832D8068382E5E
S113123002C0883641F4F70193FD859193FF8191B3
S11312407F018111B3CF982F9F7D9554933028F45B
S11312500C5F1F4F9FE399830DC0833631F08337B2
S113126071F0833509F059C021C0F8018081898368
S11312700E5F1F4F88248394912C530113C02801BF
S1131280F2E04F0E511CF801A080B18036FE03C07D
S1131290692D70E002C06FEF7FEFC5010E94940AD0
S11312A04C018201F32DFF773F2E16C0280122E066
S11312B0420E511CF801A080B18036FE03C0692D96
S11312C070E002C06FEF7FEFC5010E94890A4C01F4
S11312D0F32DF0683F2E820133FC1BC0822D90E079
S11312E088169906B0F4B60180E290E00E949F0A45
S11312F02A94F4CFF50137FC859137FE81915F0183
S1131300B60190E00E949F0A21102A9421E0821ADB
S113131091088114910471F7E8C0843611F089367C
S113132041F5F80137FE07C06081718182819381A4
S11313300C5F1F4F08C060817181072E000C880B61
S1131340990B0E5F1F4FF32DFF763F2E97FF09C0B9
S113135090958095709561957F4F8F4F9F4FF06862
S11313603F2E2AE030E0A3010E94DB0A882E861873
S113137045C0853731F4232D2F7EB22E2AE030E08C
S113138025C0932D997FB92E8F36C1F018F4883576
S113139079F0B5C0803719F0883721F0B0C0E92F53
S11313A0E061BE2EB4FE0DC0FB2DF460BF2E09C05B
S11313B034FE0AC0292F2660B22E06C028E030E091
S11313C005C020E130E002C020E132E0F801B7FEC0
S11313D007C060817181828193810C5F1F4F06C0B9
S11313E06081718180E090E00E5F1F4FA3010E9435
S11313F0DB0A882E8618FB2DFF773F2E36FE0DC0A4
S1131400232D2E7FA22E891458F434FE0BC032FCF7
S113141009C0832D8E7EA82E05C0B82CA32C03C032
S1131420B82C01C0B92CA4FE0FC0FE01E80DF11DBB
S11314308081803321F49A2D997EA92E09C0A2FEC1
S113144006C0B394B39404C08A2D867809F0B3948B
S1131450A3FC11C0A0FE06C0B21488F4280C922C80
S11314609B180EC0B21460F4B60180E290E00E94B2
S11314709F0AB394F7CFB21418F42B1802C0982C17
S1131480212CA4FE10C0B60180E390E00E949F0AC4
S1131490A2FE17C0A1FC03C088E790E002C088E563
S11314A090E0B6010CC08A2D867859F0A1FE02C0E6
S11314B08BE201C080E2A7FC8DE2B60190E00E94BD
S11314C09F0A891438F4B60180E390E00E949F0AD1
S11314D09A94F7CF8A94F301E80DF11D8081B60147
S11314E090E00E949F0A8110F5CF222009F442CE99
S11314F0B60180E290E00E949F0A2A94F6CFF6019A
S11315008681978102C08FEF9FEF2B96E2E10C94C6
S1131510690BFC010590615070400110D8F780956B
S113152090958E0F9F1F0895FC01615070400190AB
S11315300110D8F7809590958E0F9F1F08950F93F3
S11315401F93CF93DF93FB01238121FD03C08FEF12
S11315509FEF2CC022FF16C046815781248135811C
S11315604217530744F4A081B1819D012F5F3F4F7F
S1131570318320838C93268137812F5F3F4F3783BC
S1131580268314C08B01EC01FB010084F185E02D5E
S11315900995892BE1F6D80116968D919C911797A0
S11315A0019617969C938E931697CE01DF91CF9157
S11315B01F910F910895FA01AA27283051F1203183
S11315C081F1E8946F936E7F6E5F7F4F8F4F9F4FD3
S11315D0AF4FB1E03ED0B4E03CD0670F781F891F15
S11315E09A1FA11D680F791F8A1F911DA11D6A0FE3
S11315F0711D811D911DA11D20D009F468943F9196
S11316002AE0269F11243019305D3193DEF6CF0194
S11316100895462F4770405D4193B3E00FD0C9F75A
S1131620F6CF462F4F70405D4A3318F0495D31FDC7
S11316304052419302D0A9F7EACFB4E0A69597951A
S1131640879577956795BA95C9F7009761057105F0
S113165008959B01AC010A2E06945795479537953A
S11316602795BA95C9F7620F731F841F951FA01D94
S11316700895AA1BBB1B51E107C0AA1FBB1FA617D5
S1131680B70710F0A61BB70B881F991F5A95A9F727
S113169080959095BC01CD0108952F923F924F9271
S11316A05F926F927F928F929F92AF92BF92CF92EE
S11316B0DF92EF92FF920F931F93CF93DF93CDB7F7
S11316C0DEB7CA1BDB0B0FB6F894DEBF0FBECDBF6F
S11316D009942A88398848885F846E847D848C8440
S11316E09B84AA84B984C884DF80EE80FD800C8149
S11316F01B81AA81B981CE0FD11D0FB6F894DEBF2C
S10F17000FBECDBFED010895F894FFCF9B
S113170C47A13166B143616C6962726174696E6739
S113171C20626173656C696E652E2E2E00426173B6
S113172C656C696E65203D202575005261772041FA
S113173C4443203D20257500495220706F6C6C2069
S113174C696E6974206F6E2044330A0053656375A7
S113175C726520426F780050726573656E742074E4
S113176C61670052464944204D6F646500416363D0
S113177C657373206772616E7465642100416363E1
S113178C6573732064656E6965642100456E7465C8
S113179C7220636F6465004952204D6F646500319B
S11317AC39393300466972652100466972652044F3
S11317BC65746563746F72004E6F206669726500A0
S11317CC54696D656F75742077616974696E6720EF
S11317DC666F7220726573706F6E73650A0056655E
S11317EC7273696F6E52656720647572696E6720D7
S11317FC74696D656F75743A203078253032580AE7
S113180C004572726F725265673A20307825303217
S113181C580A005478436F6E74726F6C526567206B
S113182C6265666F72653A20005478436F6E747209
S111183C6F6C5265672061667465723A200015
S9030000FC
